:020000041000EA
:10000000002008205D0100101301001015010010F0
:100010001101001011010010110100101101001058
:100020001101001011010010110100101701001042
:100030001101001011010010190100101B01001026
:100040001D0100101D0100101D0100101D010010F8
:100050001D0100101D0100101D0100101D010010E8
:100060001D0100101D0100101D0100101D010010D8
:100070001D0100101D0100101D0100101D010010C8
:100080001D0100101D0100101D0100101D010010B8
:100090001D0100101D0100101D0100101D010010A8
:1000A0001D0100101D0100101D0100101D01001098
:1000B0001D0100101D0100101D0100101D01001088
:1000C0001D0100101D0100101D0100101D01001078
:1000D0001D0100101D0100101D0100101D01001068
:1000E0001D0100101D0100101D0100101D01001058
:1000F0001D0100101D0100101D0100101D01001048
:100100001D0100101D0100101D0100101D01001037
:1001100000BE00BE00BE00BE00BE00BEEFF3058004
:10012000103800BEF2EB8871389900106499001005
:10013000A801001090A31AE7D3DEFFFF42012110AF
:10014000FF010000709E0000793512AB4FF00000F7
:100150002049086006C881F3088810474FF05040D6
:10016000006810B14FF00000F2E70FA40ECC002998
:1001700002D000F015F8F9E71749184A002000E00E
:1001800001C19142FCD1002080F30A8814498847BC
:10019000144988471449884700BEFDE701C901C2D8
:1001A0009A42FBD3704700BF6499001010010020F1
:1001B00054070020A89F001000000820000008201D
:1001C000A89F001000100820001008200000000068
:1001D0007047000008ED00E0540700209C0D02204D
:1001E000957000102904001059700010F8B500BF78
:1001F000064B0749C91A891048BF0131491003D07D
:10020000044B0BB101481847704700BF540700204A
:10021000540700200000000008B5054B1BB105493C
:100220000548AFF30080BDE80840FFF7E1BF00BF1D
:100230000000000078090020E87700100346034A18
:1002400007CA83E807001846704700BFC090001037
:10025000192340EC4030704708B5192004F040FAEB
:1002600019234FF0010242EC443008BD10B50E488E
:1002700007F02BF8FFF7F0FF002408E02046FFF717
:10028000E7FF84F001044FF4FA6005F0BFF84FF087
:1002900050431968054B1B688B42EFD0034B196024
:1002A000034807F041F8E9E7E8770010A8060020C6
:1002B000FC77001070B505460C46164605F066F84A
:1002C000F30E4FEA461CBCEB060C63F100039B00E7
:1002D00043EA9C734FEA8C0C1CEB060C43F10003C1
:1002E000DB0043EA5C734FEACC0C10EB0C0043EBF1
:1002F0000103002B07DBA060E3602B685B692146EC
:100300002846984770BD4FF0FF306FF00043F2E78A
:1003100008B542F21072FFF7CDFF0A4B19684A1C6C
:100320001A60094807F000F84FF050431968074B6E
:100330001B688B4200D108BD044B1960044806F0CD
:10034000F3FFF8E76809002018780010A4060020E1
:100350003478001010B584B001AC2046FFF76EFF72
:10036000042301934FF4007302932146044800F0E4
:1003700073FA10B1024804B010BD0020FBE700BFC3
:100380005807002030B583B0FFF7E4FF002213497F
:10039000FFF790FF002401940123009323464FF4BC
:1003A00000720F490F4803F00DF909E0651C214662
:1003B0000D4806F0B9FF40F6B83003F035FB2C4687
:1003C0004FF050431968094B1B688B42EED0074B26
:1003D0001960074806F0A8FFE8E700BFB006002054
:1003E0004C7800106D02001074780010A0060020F8
:1003F0005878001000B585B003AB01930223009339
:1004000000234FF400720649064803F0DBF801218F
:10041000039803F013FA03F037F905B05DF804FB15
:10042000947800108503001008B506F049FF0449D0
:10043000044806F079FFFFF7DDFF002008BD00BF8C
:10044000A0780010B0780010012380F8313000202F
:100450007047000010B5EFF3058313F0FF0F0BD1C9
:1004600004464FF0FF31006A01F0BCFE94F83030D2
:10047000013384F8303010BD024B034AA6210348F3
:1004800006F0EEFDCC78001064910010E4780010C6
:1004900010B5006A01F01CFB044602F0CFFC844258
:1004A00000D110BD024B034AAF21034806F0D8FD2E
:1004B0004479001040910010E478001038B50446EB
:1004C0000D4604F063FF241A65EB0101012C71F164
:1004D000000322DB124BA3424FF000038B4100DAF2
:1004E0000F4C04F2E7330F4AA2FB03239B09590187
:1004F000C91A62EB0202920042EA91728900C9189D
:1005000042F10002D4004FF47A720023C80044EA9A
:10051000517107F035F9013038BD0020FCE700BF0C
:1005200000879303D34D621010B582B00446FFF7E5
:10053000AFFF0BE04FF0FF32009200230421A06ACE
:1005400003F07AFFB0FA80F0400980B1204600F055
:100550006FFA084B1A685B68994208BF9042E9D06D
:10056000FFF7ACFF02460028E6D10120EDE702B01C
:1005700010BD00BF0898001070B582B00446C06A74
:1005800060B1EFF3058313F0FF0F09D0002211468D
:1005900003F0B2FC0021606A01F048FC02B070BDBB
:1005A00002F04CFCE66A86420ED00025009502233C
:1005B0002A462946304603F0EDFB2B462A462946BB
:1005C000606A01F0A1FAE9E72046FFF761FFE5E77D
:1005D00038B5044690F83030012B0AD0002594F845
:1005E0003030013B84F83030206A01F065FB65B99A
:1005F00038BDC56A02F022FC854201D00125EEE734
:100600002046FFF791FF0025E9E72046FFF7B4FFFA
:10061000EEE710B504464FF0FF320021084603F024
:1006200057FB94F831306BB92046FFF713FF204693
:10063000FFF77AFF2046FFF7CBFF40BF94F8313039
:10064000002BE8D0002003F067F810BD08B50123A7
:100650000B72FFF791FF08BD10B50C464B69886916
:100660009847E06100231A461946206901F04CFAC8
:1006700010BD08B503F01AFFFFF77EFF08BD0000AC
:1006800070B5064615461C46EFF3058313F0FF0FC1
:1006900010D00E4B0E4A40F211110E4806F0E0FC4D
:1006A00028462146FFF70AFF014668B1706A01F04B
:1006B000DBFC48B9084B5B6A9C42F1D8064A926A57
:1006C000AA4201D29C42EBD070BD00BFCC78001092
:1006D00014910010E478001000000B4008B5194692
:1006E000EFF3058313F0FF0F05D11046FFF7E6FE89
:1006F00003F09AF908BD034B034A4FF48571034890
:1007000006F0AEFCCC780010F0900010E4780010F9
:1007100038B504460D46FFF79DFE2946204600F0F9
:1007200022F905462046FFF753FF284638BD38B565
:1007300004460D46FFF78EFE2946204600F004F9D8
:1007400005462046FFF744FF284638BD38B5044625
:100750000D46FFF77FFE2946204600F0E5F80546E6
:100760002046FFF735FF284638BD38B504460D460C
:10077000FFF770FE2946204600F0C6F805462046E1
:10078000FFF726FF284638BD10B582B00446C36A7D
:1007900023B103681B6902460C499847A06A28B137
:1007A000002200921346052103F046FE206A08B19C
:1007B00001F094FD606A08B101F090FD382200213B
:1007C000204606F0E7FE02B010BD00BF490400104D
:1007D000F0B589B004460F461646006A01F078F974
:1007E000054602F02BFB854228D0202200216846D6
:1007F00006F0D0FE144B01930597069603220021C4
:10080000012001F035F904902368DB696946204630
:10081000984723685B6A6946204698474FF0FF3146
:10082000049801F021FC23681B6A6946204698471A
:10083000049801F053FD079809B0F0BD034B044A3A
:10084000C321044806F00CFC5906001090790010F2
:10085000CC900010E478001070B582B004460D46CC
:100860003822002106F096FE224B236001262683C3
:100870004FF050431B68A376042001F011FA206268
:1008800003220021304601F0F3F860621A4B009316
:10089000234600224FF0FF31184803F0B1FDA0625B
:1008A000236A7BB1636A6BB160B104F12C030193DD
:1008B0002B68009323466A681149124802F082FEB1
:1008C000B04206D023685B6B20469847002002B0F8
:1008D00070BDA968B1F1FF3F07D0012505FA01F10C
:1008E000E06A02F0ABFF2846F1E74FF05043196889
:1008F000F3E700BF9491001073060010DC7900103C
:10090000F07900101306001000F10802836801E07E
:100910001A461B6823B113688B42F9D10020704737
:1009200011600B600120704700F10802836801E04C
:100930001A461B6833B113688B42F9D10B681360F8
:100940000120704700207047021D436801E01A46ED
:100950001B6823B113688B42F9D1002070471160E6
:100960000B6001207047021D436801E01A461B68B6
:1009700033B113688B42F9D10B68136001207047C3
:100980000020704738B50446806838B304F0FEFC98
:1009900004F1080C002506E0124B134A42211348CB
:1009A00006F05EFB9C46DCF800309BB19A68DC6880
:1009B000B0EB020E61EB040EBEF1000FF2DB0C494E
:1009C000086849688C4208BF8242E5D0104621463B
:1009D0006546E7E71DB1286803682B6038BD2846E7
:1009E000FCE700BF047A0010CC910010287A0010B8
:1009F0000898001070B40D4B19685E68836800E0B9
:100A00002B4673B11D689A68DC68B1EB020C66EB8B
:100A10000403BCF1010F73F10003F1DB114626461C
:100A2000EEE70161466170BC704700BF0898001096
:100A300038B5054602E04B68284698472846FFF738
:100A4000A1FF01460028F6D16C6800E024684CB193
:100A5000237A002BFAD000232372636821462846AC
:100A60009847F3E72846FFF7C5FFD5E9040138BDED
:100A70000FB400B583B0049C074806F026FC3CB1D7
:100A800005A90191204606F02FFC044806F01DFC44
:100A9000012006F0DFFA00BF847A001014780010FD
:100AA000104A12F0070F1AD0D11D21F00701C1F52D
:100AB000003313440A460C4802600021416013448D
:100AC000083B23F007030948036059601960991A2D
:100AD00051601360064B1960064B196070474FF464
:100AE0000033E8E7580C0020540D0220C009002014
:100AF000E40C0220D40C022010B51B4B19461B68D5
:100B00008342FBD3184A914205D0184A914211D32F
:100B1000174A91420ED84A6801EB020C844510D066
:100B2000426800EB020C634510D00360884200D09D
:100B3000086010BD0F4B104A4FF400710F4806F0CB
:100B40008FFA406802444A600846E9E70C4C246882
:100B5000A34206D05B681A4442600B681B680360BE
:100B6000E4E70460E2E700BF540D0220580C0020C7
:100B7000570C0220947A0010FC910010107B00109A
:100B8000C009002070B5044670B110F1090F0AD8F1
:100B9000083414F0070307D0C3F10802093BA3424D
:100BA00026D3144400E0002401F024FF464B1B68C8
:100BB00003B3002C79DB002C79D0444B1868A04299
:100BC00077D3434B1A68434B9A4216D3424B9A420F
:100BD00013D83F495368A3421BD21368CBB13D4998
:100BE0008B4210D311463C4A93420CD81A46F1E787
:100BF0000024D9E7FFF754FFDBE7384B384AF621EA
:100C0000384806F02DFA354B354AFC21354806F0B8
:100C100027FA2D4B1B6893424DD00D6808352D4B9C
:100C20009D422DD32C4B9D422AD813680B605368EC
:100C3000A3422CD31B1B102B08D9161916F0070F33
:100C40002CD1736054600B6813510E605368C01A46
:100C50001E49086024490968884201D22249086077
:100C600043F00043536000231360204A13680133AC
:100C7000136002F02BFE15F0070F1ED1284670BD41
:100C80001B4B174A4FF48371164806F0E9F9194BCC
:100C9000134A4FF48771134806F0E2F9164B104AD5
:100CA00040F217110F4806F0DBF90025E1E70025B7
:100CB000DFE70025DDE70025DBE7104B084A40F2BF
:100CC0005D11084806F0CCF9C0090020D40C0220C0
:100CD000540D0220580C0020570C0220687B001095
:100CE00024920010107B0010E40C0220F00C022073
:100CF000DC7B0010547C0010887C0010BC7C001051
:100D000000283BD038B50446A0F108051C4B9D4295
:100D10001FD31C4B9D421CD850F8043C002B1FDAFB
:100D200050F8082C1ABB23F0004340F8043C01F0B3
:100D300061FE54F8041C144A13680B4413602846DF
:100D4000FFF7DAFE114A13680133136002F0BEFDAB
:100D500038BD0F4B0F4A4FF4B8710F4806F080F9B9
:100D60000E4B0C4A40F271110B4806F079F90C4B0E
:100D7000084A4FF4B971084806F072F9704700BF8D
:100D8000580C0020570C0220D40C0220F40C022036
:100D9000F87C001018920010107B00106C7D001081
:100DA000E07D00104FF0E023D3F8882D42F470026C
:100DB000C3F8882DD3F8342F42F04042C3F8342FC3
:100DC000704700000B4B93F90020002A11DB4FF015
:100DD0005043D3F8881101239340194209D04FF0B2
:100DE0005042C2F88C314FF0E0234FF08052C3F8EC
:100DF000042D7047C806002000B583B0002301937E
:100E00004FF050431A680A4B53F82230B3F1FF3FBA
:100E100007D100F011FB019B002BFCD003B05DF863
:100E200004FB044B044A40F26631044806F018F90A
:100E3000600C02200C7E0010C8920010407E001052
:100E400010B502F0C1FA044601F024FE28B14FF0BB
:100E5000E0234FF08052C3F8042D204602F0E6FE56
:100E600010BD38B504460D4604F090FA201A65EB23
:100E7000010140F2E733C01841F10001B0F57A7F7B
:100E800071F1000301DA002038BD4FF47A720023BB
:100E900006F07EFCF8E7000010B54FF0E0240423D4
:100EA00023610023A361052003F092FB044BA3FB05
:100EB00000239B09013B63610723236110BD00BF31
:100EC000D34D621030B583B0002301934FF0E0237F
:100ED0004FF07F42C3F81C2DD3F81C3D1B0E8DF83C
:100EE00003309DF8033003F010033E4A13705BB1EA
:100EF0009DF8033013F0100F16D13B4B3B4A40F2E4
:100F0000F5613B4806F0ACF83A4B384A40F2F161E3
:100F1000374806F0A5F8019B013301939DF8033093
:100F20005B00DBB28DF803309DF8033013F0800FC7
:100F3000F1D1019B082B41D0019BC3F107032E4A3D
:100F400013602D4A13681B02136003F4E0631360FF
:100F50002A4B1A784FF050431B689A4232D04FF018
:100F6000E023D3F8202D42F47F02C3F8202D002483
:100F7000C3F81C4D22490E2004F048FB21490B20E8
:100F800004F044FB4FF050452A681F4B43F82240C1
:100F9000FF211A2003F04EFD1C491A2003F05EFCCD
:100FA00001211A2003F048FC00F03EFA286801F005
:100FB00065FEFFF721FF204603B030BD0E4B002237
:100FC0001A60BEE7FFF768FF4FF0E022D2F8203D3D
:100FD00043F07F43C2F8203D0D490F2004F016FB7B
:100FE000BDE700BF990D0220D07E0010989200103E
:100FF000407E0010B87E0010680C0220C906002058
:1010000061140010F9140010600C0220C50D0010CE
:10101000410E001008B500F00FFAFFF753FF08BDAE
:101020004FF0E0234FF08052C3F8042DBFF34F8FF1
:10103000BFF36F8F7047000008B5836913F8023C57
:10104000662B04D1FFF7AEFE00F0D2F908BD034BCA
:10105000034A40F2CA41034806F002F8107F00102C
:10106000DC920010407E001010B44FF0807440F805
:10107000044C40F8082C1F4A40F80C2C4FF0123258
:1010800040F8102C4FF0033240F8142C4FF002328D
:1010900040F8182C4FF0013240F81C2C40F8203C4E
:1010A0004FF0113340F8243C4FF0103340F8283C07
:1010B0004FF0093340F82C3C4FF0083340F8303CF7
:1010C0004FF0073340F8343C4FF0063340F8383CDB
:1010D0004FF0053340F83C3C4FF0043340F8403CBF
:1010E0006FF0020340F8443C40F8481C48385DF873
:1010F000044B7047F90D001008B5194B1B78FF2BF6
:1011000020D10E2003F0AEFA0F2003F0ABFA01213C
:10111000032004F073FB40B2124B1870012383408C
:101120004FF05042C2F88C31C2F884310C4B002190
:10113000197013686BB90C4804F04EFBFFF7C2FE40
:10114000002008BD094B0A4A40F26671094805F0C3
:1011500087FF094B064A40F27271064805F080FF8E
:10116000C9060020C806002015100010287F0010B6
:10117000B4920010407E0010447F001008B5EFF3D9
:1011800005830F2B05D90F4A9A5C0F4B1B789A42A7
:101190000AD34FF0E023D3F80C3D03F4E0630B4A8D
:1011A0001268934207D808BD094B0A4A40F6351128
:1011B000094805F055FF094B064A40F64511064817
:1011C00005F04EFFF0E300E0990D0220680C0220CC
:1011D000587F001078920010407E0010847F00102D
:1011E00008B50A4B1B78FF2B0CD0EFF30583DBB25D
:1011F0002BB14FF05042106800EB430008BD01F0E6
:101200001DFEFBE74FF050431868F7E7C9060020C2
:101210008C4602681E4BD21A1E4BA3FB02131B09FD
:1012200003EB4303A2EBC303012199401A4B1B7844
:10123000FF2B25D000B583B040BF02680023C2E871
:101240008F3F8CF31088EFF3058313F0FF0F06D167
:10125000124B186800F000FA03B05DF804FB00239D
:10126000019301AA0D4B186800F046FA019B002B70
:10127000F2D04FF0E0234FF08052C3F8042DEBE79B
:1012800040BF02680023C2E88F3F8CF3108870478C
:1012900010090020ABAAAAAAC9060020D00C02207F
:1012A000F0B583B01D46EFF3058313F0FF0F21D196
:1012B00004460F46164603681BB32B4A1278FF2AD2
:1012C00026D030462946FFF7CCFD8446002829D198
:1012D00022680023C2E88F3F87F31088234B5B6AA4
:1012E0009D423AD8214A926AB2423BD29D4234D0C2
:1012F000012035E01E4B1F4A40F652211E4805F0E2
:10130000AFFE1E4B1B4A40F653211B4805F0A8FEBA
:101310000022C3E88F2F81F310883046294603F05E
:101320005DFF1DE022680023C2E88F3F87F310882D
:1013300022681349521A1349A1FB0201090901EB62
:101340004101A2EBC1010122CDF800C002FA01F176
:101350000D48006800F0F6F8C0E7FFF761FE0020D6
:1013600003B0F0BD0120FBE7C906002000000B40E0
:10137000E07F001040920010407E00104C80001072
:1013800010090020ABAAAAAAD00C022008B500F0D0
:10139000CCF8014B186008BDD00C022008B54FF006
:1013A00050431B6883420BD00C4B93F90020002A5A
:1013B0000DDB012393404FF05042C2F8803108BD4D
:1013C000074B084A40F6AC21074805F049FE074B99
:1013D000044A40F6B121044805F042FEC806002048
:1013E0006080001034920010407E00108480001055
:1013F0000BA10CC9126853F82210086806C881F3C3
:101400000B88022181F31488203080F30988BFF310
:101410006F8F4FF0000080F311881047AFF300800A
:10142000000000D0B009002062B661B6BFF34F8F54
:10143000BFF36F8F66DF00BFEFF311804FF0100135
:1014400081F31188BFF34F8FBFF36F8F704780F325
:101450001188BFF34F8FBFF36F8F704700000000FC
:10146000EFF309811EF0100F08BF21ED108AEFF392
:101470000B82734621E9FC0F55FC084457FC0964B4
:1014800059FC0A8401E9F00319A00CC8106853F84C
:10149000203019604FF0100181F31188BFF34F8F96
:1014A000BFF36F8F01F0EAFB4FF0000080F311886B
:1014B0000FA10CC9126853F8221008681838B0E858
:1014C000F00345EC004447EC016449EC0284B0E8C9
:1014D000FC0F13F0100F08BFB0EC108A82F30B88DA
:1014E00080F30988184700BFAFF30080AFF3008096
:1014F000000000D0B00900201EF0040F0CBFEFF375
:101500000880EFF3098001490847000039100010F6
:101510001AB9084205D110467047814303D0002014
:101520007047012070470120704710B51C20FFF75D
:1015300029FB044620B1002340F8043B00F0E6F804
:10154000204610BD2DE9F843089F80B30D46904614
:101550001E468146B1F1807F30D2002935D002F09D
:101560004FFB08B9002F37D101F044FAD9F80040F9
:10157000324629462046FFF7CBFF002833D0B8F18A
:10158000000F44D024EA0503C9F80030002702F018
:101590009DF94FB100283CD002F082FB044610F0C8
:1015A000007F39D024F07F442046BDE8F883244BE7
:1015B000244A40F24711244805F052FD234B214AAA
:1015C0004FF4A471204805F04BFD214B1D4A40F219
:1015D00049111D4805F044FD1E4B1A4A4FF4A671EF
:1015E000194805F03DFD002FD1D0B8F1000F0BD107
:1015F00000210EB141F080613A46294309F104000F
:1016000001F0A4FC0024C2E74FF08071F1E700274D
:10161000BDE701F08DFEBFE701F09EFED9F8004066
:10162000324629462046FFF773FF30B1B8F1000F6C
:1016300003D024EA0505C9F8005001F0EDFEB1E73A
:101640009880001004930010A4800010F080001017
:101650002881001040810010F8B570B10D46044695
:10166000B1F1807F10D200F10C0601F0C3F92069BE
:1016700023682B432360002718E0194B194A40F2D6
:101680003221194805F0ECFC184B164A40F2332180
:10169000154805F0E5FC216832EA010105D111E0A9
:1016A000216841F0007102F0E1F92846B0420ED005
:1016B0004568036823F07F4213F0806FEBD1216807
:1016C0001142F2D013F0807FEAD01743E8E7236895
:1016D00023EA0703236002F0F9F82068F8BD00BF91
:1016E00098800010F0920010A480001094810010E7
:1016F00008B5FFF7B1FF08BD08B513460A46014615
:10170000014802F0EBFE08BDF116001000F10803DD
:1017100043604FF0FF328260C360036100230360C7
:10172000704700230361704743684B609A688A6082
:10173000516099600861036801330360704730B4F9
:101740000D68B5F1FF3F11D000F108031C465B683E
:101750001A68AA42FAD963684B6099608C6061602C
:10176000086103680133036030BC70470469F2E725
:101770000369416882688A60416851605A688242A0
:1017800005D000220261186801381860704782682D
:101790005A60F6E70346406A18B11B6B1868C0F13F
:1017A0002000704710B5044601F0D6FDA26BE36B34
:1017B0009A4204D0002401F02FFE204610BD0124DF
:1017C000F9E710B5044601F0C7FDA36B23B9012466
:1017D00001F022FE204610BD0024F9E770B5044652
:1017E0001546866B026C5AB903681BB1002001369E
:1017F000A66370BD806801F085FC0023A360F6E756
:101800006DB9406805F014FF6368226C134463608F
:10181000A268934219D3236863602846E7E7C0684B
:1018200005F006FFE368226C51429B1AE3602268D0
:10183000934202D2A3680B44E360022D01D0002042
:10184000D5E726B1013E0020D1E72846CFE70020AA
:10185000CDE70346026C6AB110B50846D968114459
:10186000D9609C68A14201D31968D960D96805F094
:10187000DFFE10BD7047000070B582B00190846C2F
:1018800054B1A26BE36B9A420DD2A26B934211D872
:101890000025284602B070BD1B4B1C4A40F6F8419B
:1018A0001B4805F0DDFB1B4B184A40F6F941184870
:1018B00005F0D6FB94F8456076B2002201A92046D7
:1018C000FFF78CFF0546B6F1FF3F0AD1636A002B94
:1018D000DFD004F1240001F01FFA0028D9D001253F
:1018E000D7E701F0D1F88642D3D27F2E04D001365B
:1018F00076B284F84560CCE7074B044A40F61951AC
:10190000034805F0ADFB00BFC8810010A89300108C
:10191000DC810010248200106C82001038B505466E
:1019200001F01AFD95F8454064B208E06B6AB3B166
:1019300005F1240001F0F0F970B9013C64B2002C0B
:101940000DDDAB6C002BF1D02846FFF795FF00288A
:10195000F3D001F069FAF0E701F066FAEDE7FF2352
:1019600085F8453001F058FD01F0F6FC95F844404B
:1019700064B201E0013C64B2002C0ADD2B6943B182
:1019800005F1100001F0C8F90028F3D001F04CFA7D
:10199000F0E7FF2385F8443001F03EFD38BD00003C
:1019A00038B530B30D460446C36B002B3CD0026CF7
:1019B0000021A2FB03231BBB002935D101F0CCFC85
:1019C0002368E26B216C01FB0230A0600020A06361
:1019D0006360013A02FB0133E360FF2384F8443083
:1019E00084F84530BDB9236963B901F015FD0120C4
:1019F00038BD114B114A40F23711114805F030FB48
:101A00000121D9E704F1100001F086F90028ECD09B
:101A100001F08EFCE9E704F11000FFF777FE04F116
:101A20002400FFF773FEE0E7064B044A4FF4B6715B
:101A3000034805F015FB00BF908200103C94001095
:101A4000DC8100109882001038B51D46049C0B46BE
:101A500059B92460E063236401212046FFF7A0FF09
:101A600084F850500023A36438BD2260F2E70000E0
:101A7000F0B583B0F0B10C46174605460023A4FB31
:101A80000012AAB9B3B904FB05F010F1550F11D833
:101A90005430FFF777F8064638B100903B4600F126
:101AA000540221462846FFF7CFFF304603B0F0BD71
:101AB0000123E7E7034B044A40F22A21034805F0DB
:101AC000CFFA00BFBC82001028940010DC81001007
:101AD00010B548B1044601F03FFC23685BB9A46827
:101AE00001F09AFC204610BD044B054A4FF42E71BC
:101AF000044805F0B5FA0024F2E700BFC8820010E0
:101B000010940010DC810010F0B585B00192B0B1E6
:101B10000F461D460446C9B1022D02D1E36B012BCD
:101B20001ED102F06DF8064608BB019B002B5DD06C
:101B30004F4B504A40F2BB314F4805F091FA4F4BA2
:101B40004C4A40F2B6314C4805F08AFA036C002B3F
:101B5000E2D04B4B474A40F2B731474805F080FA94
:101B6000484B444A4FF46E71434805F079FA002619
:101B70003CE0A66B2A4639462046FFF72FFEA36CB1
:101B800073B1022D00D11EB92046FFF775FE20B9B2
:101B900001F042FC012005B0F0BD01F0C9FBF7E700
:101BA000636A23B90028F3D001F0C2FBF0E704F127
:101BB000240001F0B1F80028EAD001F0B9FBE7E712
:101BC00001F02AFC0020E6E702A801F021F9012635
:101BD00019E0002384F8443021E0002384F84530E4
:101BE00023E02046FFF79AFE01F070FE01F0B4FBFF
:101BF000A26BE36B9A42BCD3022DBAD0019B002B9F
:101C0000DED0002EE0D001F007FC00F0F3FE01F082
:101C1000A3FB94F8442052B2B2F1FF3FD9D094F81C
:101C2000452052B2B2F1FF3FD7D001F0F5FB01A938
:101C300002A801F08DFF98B92046FFF7B3FD0028F8
:101C4000CFD0019904F1100001F062F92046FFF7AE
:101C500065FE01F03BFE0028C8D101F069FBC5E735
:101C60002046FFF75BFE01F031FE002093E700BF46
:101C700040810010C4930010DC810010908200109D
:101C8000D48200102C83001048B108B50021816077
:101C90000160C1600B460A46FFF736FF08BD70477A
:101CA00010B5024600210120FFF7E2FE0446FFF7CF
:101CB000EBFF204610BD000038B538B104468568FA
:101CC00001F0BCF8854208D0002038BD094B0A4A13
:101CD00040F2FB21094805F0C3F9E368013BE360EA
:101CE0000BB10120F1E71A4619462046FFF70CFF19
:101CF0000120EAE77C830010F4930010DC810010DF
:101D00002DE9F047D8B10E4691461D460446E9B18B
:101D1000022D02D1E36B012B22D1FFF72FFA01F044
:101D200053FB0746A26BE36B9A4220D3022D1ED0D1
:101D30000024384601F07AFF2046BDE8F087354B95
:101D4000354A4FF49261354805F08AF9036C002B4F
:101D5000DED0334B304A40F29141304805F080F9F3
:101D6000304B2D4A40F292412C4805F079F994F815
:101D700045804FFA88F8D4F838A02A4631462046E4
:101D8000FFF72CFDB8F1FF3F21D1A36C7BB1022DF1
:101D900002D1BAF1000F30D12046FFF76DFD70B3CC
:101DA000B9F1000F2DD00124C9F80040C1E7636AE2
:101DB0000BB90124BDE704F1240000F0ADFF10B31E
:101DC000B9F1000F21D00124C9F80040B1E700F0BB
:101DD0005BFE80451BD2B8F17F0F07D008F10108E8
:101DE0004FFA88F884F845800124A2E70E4B0A4A8E
:101DF00040F21E51094805F033F9012499E7012406
:101E000097E7012495E7012493E7012491E7012452
:101E10008FE700BF908200108C930010DC810010CF
:101E2000D48200102C8300106C820010F8B510B31F
:101E30000F460446036C2BBB036853B3FFF79EF9B0
:101E400001F0C2FA0546A36BE26B9A424BD994F8B3
:101E5000456076B20133A363B6F1FF3F30D1A36C86
:101E60000BB32046FFF708FD002842D0002F42D0D8
:101E700001243C6038E0244B244A4FF4A8612448F4
:101E800005F0EEF8234B214A40F24451204805F07A
:101E9000E7F88368002BD1D01F4B1C4A40F2495110
:101EA0001B4805F0DDF8636A0BB901241CE004F15E
:101EB000240000F031FF00B30FB301243C6013E0B5
:101EC00000F0E2FD86421CD27F2E05D0013676B2AC
:101ED00084F84560012407E0104B0C4A40F2CB51D6
:101EE0000B4805F0BDF80024284601F09FFE20466F
:101EF000F8BD0124F8E70124F6E70124F4E7012402
:101F0000F2E70124F0E700BF908200107893001000
:101F1000DC81001084830010A08300106C8200100C
:101F2000F0B585B0019280B10F460446A1B101F031
:101F300067FE0646D0B9019B002B50D0454B464A60
:101F400040F2F251454805F08BF8454B424A40F2C9
:101F5000E951424805F084F8036C002BE7D0414B6F
:101F60003D4A40F2ED513D4805F07AF8002636E052
:101F700039462046FFF76DFC013DA563236923B96F
:101F800001F04AFA012005B0F0BD04F1100000F0A4
:101F9000C3FE0028F4D001F0CBF9F1E701F03CFAE0
:101FA0000020F0E702A800F033FF012621E0002323
:101FB00084F8443029E0002384F845302BE02046A3
:101FC000FFF7ACFC01F082FC09E02046FFF7A6FC1D
:101FD00001F07CFC2046FFF7F4FB002837D101F02C
:101FE000BBF9A56B002DC3D1019B002BD6D0002ED1
:101FF000D8D001F011FA00F0FDFC01F0ADF994F831
:1020000044305BB2B3F1FF3FD1D094F845305BB2BE
:10201000B3F1FF3FCFD001F0FFF901A902A801F011
:1020200097FD0028D1D12046FFF7CBFB0028C6D072
:10203000019904F1240000F06BFF2046FFF76EFCCD
:1020400001F044FC0028CAD101F072F9C7E7002072
:1020500099E700BF4081001068930010DC810010F8
:10206000048400101084001070B584B0019150B148
:102070000446036C73B901F0C3FD0546C0B9019B6A
:102080007BB9064659E0524B524A40F282615248AF
:1020900004F0E6FF514B4F4A40F286614E4804F08F
:1020A000DFFF4F4B4B4A40F28B614B4804F0D8FFA7
:1020B0000026354641E0013BA363236833B1236921
:1020C00043B901F0A9F9012004B070BD01F0F6FD9B
:1020D000A060F4E704F1100000F01EFE0028F0D02C
:1020E00001F026F9EDE701F097F90020ECE702A8EE
:1020F00000F08EFE01252AE0002384F8443032E00F
:10210000002384F8453034E001F026F9A06800F09F
:1021100091FF064601F080F93BE02046FFF7FEFB09
:1021200001F0D4FB09E02046FFF7F8FB01F0CEFBFD
:102130002046FFF746FB00283AD101F00DF9A36BCA
:10214000002BB8D1019B002BCDD0002DCFD001F0BA
:1021500063F900F04FFC01F0FFF894F844305BB2F3
:10216000B3F1FF3FC8D094F845305BB2B3F1FF3F05
:10217000C6D001F051F901A902A801F0E9FC00283C
:10218000D1D12046FFF71DFB0028C6D02368002BC5
:10219000BAD0019904F1240000F0BAFE2046FFF7FE
:1021A000BDFB01F093FB0028C7D101F0C1F8C4E7E3
:1021B0000EB9002088E701F0CFF82046FFF7EAFAD1
:1021C0000146A06801F028F801F026F9F1E700BF08
:1021D0000484001054930010DC81001084830010EC
:1021E0004081001070B578B10D460446866800F055
:1021F00025FE86420FD029462046FFF735FF70B1F5
:10220000E3680133E3600AE0054B064A40F23731E8
:10221000054804F025FFE3680133E360012070BD49
:102220007C830010D8930010DC81001010B520B121
:10223000044621B3002003460BE0114B114A40F63F
:10224000C931114804F00CFF104800EBC30014E042
:102250000133072B10D80D4A02EBC3025268A24289
:10226000F2D00028F4D1094A52F83320002AEFD1E5
:10227000064800EBC300EBE708B10160446010BD05
:102280006C84001030930010DC810010100D0220CF
:1022900008B558B101460023072B15D80B4A02EBAD
:1022A000C30252688A4208D00133F5E7084B094A55
:1022B00040F61D41084804F0D3FE044A002142F8CC
:1022C000331002EBC302516008BD00BF100D0220A5
:1022D0006C84001018930010DC81001010B530B130
:1022E0000446FFF7D5FF2046FEF70AFD10BD034B5D
:1022F000034A40F6D401034804F0B2FE9082001075
:1023000044930010DC81001070B504460D4616465B
:1023100001F022F894F844305BB2B3F1FF3F0DD0E6
:1023200094F845305BB2B3F1FF3F0BD001F074F885
:10233000A36B5BB12046FFF7F1FA70BD002384F870
:102340004430EDE7002384F84530EFE73246294674
:1023500004F1240000F03CFEECE70000074B1B6892
:102360001B6823B9064B4FF0FF321A607047034BCE
:102370001B68DB681A68024B1A607047BC090020B2
:10238000E80C022010B50446406BFEF7B9FC20466D
:10239000FEF7B6FC10BD000010B501281DD84FF0A7
:1023A00050431C68002A40D0D1E8CF3F0122002BC7
:1023B00001D1C1E8432FBFF35F8F2BB32C4B03EB4D
:1023C00044031B5CABB12B4B1B5CFF2B0BD0294A8E
:1023D000135C0133DBB2135420E0274B274AB521AD
:1023E000274804F03DFE274B244ABD21244804F031
:1023F00037FED1E8CF2F0123002AFAD1C1E8423FAE
:10240000002AF6D1BFF35F8F1A4B1B5C3BB9012248
:10241000184B1A54164B03EB44031A5410BD1A4BB5
:10242000164AC321164804F01BFE114B03EB44036C
:102430001B5C8BB10F4B1B5CA3B10E4A135C013BC1
:10244000DBB21354002BE9D1094B03EB4403002208
:102450001A54C1E88F2FE1E70C4B084AC9210848FC
:1024600004F0FEFD0A4B054ACA21054804F0F8FDB8
:10247000580C02205C0C0220C4840010109600103E
:10248000D4840010508500107C850010A8850010B1
:10249000DC8500102DE9F04780460D461746994629
:1024A000089EDDF824A00A9C9200A521606B05F02F
:1024B00071F8636B07F18042013A03EB820727F062
:1024C00007078DB14FF0000CBCF10F0F09D815F8BC
:1024D0000C3004EB0C0282F8403013B10CF1010C0B
:1024E000F2E7002384F84F301F2E29D82663A66513
:1024F00004F10800FFF715F904F11C00FFF711F9CA
:102500006461C6F12006E661A4624B464246616BF7
:102510003846FEF7A9FD20604FF0FF33A3630C4B54
:10252000984502D00B4B984503D1E36B43F0010370
:10253000E363BAF1000F01D0CAF80040BDE8F087AC
:10254000054B064A40F26671054804F089FD00BF5C
:1025500011350010C1250010088600108C9600105F
:102560007C8400102DE9F04385B006460F461446E2
:1025700098469000FEF706FB8146F8B17C20FEF7F6
:1025800001FB0546B0B17C22002105F003F8C5F837
:1025900034900023039302950D9B01930C9B0093B1
:1025A0004346224639463046FFF774FF284605B0B9
:1025B000BDE8F0834846FEF7A3FBF7E70546F5E7DD
:1025C00008B5FEF72DFD034B1B68022BFBD9FEF768
:1025D00027FDF8E7CC09002038B5002407E004EB1C
:1025E000840293000E481844FFF790F801341F2C22
:1025F000F5D90C4D2846FFF789F80B4C2046FFF71C
:1026000085F80A48FFF782F80948FFF77FF809487C
:10261000FFF77CF8084B1D60084B1C6038BD00BFFD
:10262000CC090020A80C0220BC0C0220FC0C0220CB
:10263000700D02205C0D0220BC090020C40900209E
:1026400038B54FF050431D682D4B53F8253063B11A
:10265000836B002B02DB836B012B4FDD036B03F1DC
:10266000FF3C00234FF0FF3407E0264B264A40F2A0
:102670007331264804F0F4FC0133012B25DC244A95
:1026800052F82310096B52F82320D26B12F0010F7D
:1026900000D001391E4A52F82320926B002AEBDB4E
:1026A0001B4A52F82320926B012AE5DC194A52F8A2
:1026B0002320002AE0D18C45DEDB4268DA4012F0AC
:1026C000010FD9D01C468C46D6E7002C16DBAC4255
:1026D00010D00F4B53F824309B6B13F1020F0DD029
:1026E0002046FEF75BFE0A4B53F824306FF00102E0
:1026F0009A6303E0074B012243F8242038BD00BF52
:10270000600C0220188600107C9600107C8400105B
:10271000B0090020900D0220F8B5814B1D68814B57
:102720001E68012E13D104467F4B53F82020916977
:1027300053F820301B6B03EB83037C4A02EB8303CB
:1027400099420BD031464FF0000C674662E0784B5F
:10275000784A4FF47A71784804F082FC724F57F847
:1027600020000830FFF704F857F82430186B57F8AA
:10277000241000EB800008316C4B03EB8000FEF767
:10278000D3FFDFE705EB85008000083013461044D7
:1027900005EB850203EB8203DB6807E05168E1404B
:1027A00011F0010F1ED1002F43D15B6883422ED060
:1027B000DA68916BB1F1FF3FF0D05B4951F824101A
:1027C0009142F0D1916BA14203D0916B11F1020FB4
:1027D00016D15168E14011F0010FE4D094633946FD
:1027E000374615E0504B53F824104FF0FF30886304
:1027F00053F824C0946343F824203946374607E051
:102800004E4B4C4A40F23C414B4804F029FC3946BF
:102810008DB1013D7FB905EB8503444A52F8233061
:10282000002BAFD10029F3D03D4A1368013B136060
:10283000EEE73946ECE7012F00D0F8BDBCF1000F00
:10284000FBD0DCF81810DCF8302002EB8200374BAC
:1028500003EB80039942F0D1DCF804301046DCF839
:102860003C1011F0010F00D0501E23FA04F212F0B8
:10287000010F05D02C4A52F82420526823EA0203A3
:1028800003F003034FF0FF3400E0013F002F2ADB89
:102890003A4623FA07F111F0010FF6D0224D55F810
:1028A0002710096B55F82750ED6B15F0010F00D07C
:1028B00001390125954023EA05038842E5DD1A4DDB
:1028C00055F82250AD6B002DDFDB174D55F8225027
:1028D000AD6B012DD9DC1A4D55F82220002AD4D138
:1028E0003C460846D1E7002CA7DB4FF050431B685D
:1028F0009C4210D00C4B53F824309B6B13F1020F09
:102900009BD02046FEF74AFD074B53F824306FF06A
:1029100001029A6391E70A4B012243F824208CE7D5
:102920007C0C0220500D0220B0090020CC090020B0
:1029300048860010B89500107C8400107486001042
:10294000900D022070B54FF050431A68224B53F897
:1029500022601FE0002221490120FFF71DFDB36B1B
:1029600013F1020F2AD10020FEF771FDFEF764FD7E
:102970001A4D012229461046FFF70EFD0122691E5D
:102980000020FFF709FD4FF050431A68144B43F83D
:102990002240D4B1B36B13F1020F1CD14FF050435E
:1029A0001B680F4A52F82340002CD3D0002042F875
:1029B000230002460B49FFF7EFFCCBE70A4B0B4A1B
:1029C0004FF453710A4804F04BFB0022691E104675
:1029D000FFF7E2FCDEE770BDB00900201F09002010
:1029E000600C02201E090020D486001024960010DE
:1029F0007C84001038B5194B1B6803B938BDFEF74D
:102A00001BFD04464FF050431A68154B53F8223013
:102A1000D3B9012213491046FFF7BEFC124B1B68C5
:102A2000CBB1124D012229460020FFF7B5FC0E4A1A
:102A3000136801331360002229461046FFF7ACFCEF
:102A40002046FEF704FDD9E7094B0A4A40F60F710C
:102A5000094804F005FBFFF775FFE2E7500D02207F
:102A6000600C02201F090020740C02201E090020A7
:102A70000C870010409600107C840010014B1868F1
:102A8000704700BF840D0220014B1868704700BFDB
:102A90006C0C022070B582B0002300930193694B47
:102AA0001B68002B40F0C580674B1C6801341C601C
:102AB0007CB9664B1B681B688BB9644A1168644B10
:102AC000186810601960634A136801331360FFF7D8
:102AD00045FC614B1B68A34238D9002263E05F4B81
:102AE0005F4A41F263215F4804F0BAFA5A4B4FF053
:102AF000FF321A60F1E7584A1360EEE702695A6044
:102B00003BE00022C2621A68013A1A60036B564A1F
:102B10001268934201D9544A1360544A03EB830369
:102B2000990011444B68C360996801614D609D60D4
:102B3000036B03EB8305A9008D18856151580131A2
:102B400003EB83039D005151FFF77AFD3F4B1B6858
:102B50001B68002BCAD03D4B1B68DB68D8688368B4
:102B60009C42C8D38369C16802698A60C1685160A8
:102B70005A6800F10805AA42C0D0002282611A6892
:102B8000013A1A60C36A002BC0D0016A426A8A60A7
:102B9000016A5160596800F11C029142B1D1426A48
:102BA0005A60AEE70132012A11DC314B53F8223072
:102BB0001B6B03EB830399002C4B5B58012BF1D962
:102BC000012102AB03EB820343F8081CEAE74FF054
:102BD00050431E680024254604E0264B012243F89A
:102BE00024200134012C29DC02AB03EB840353F8CD
:102BF000083C23B91F4B53F82430002BF1D0B442CA
:102C000015D04FF050431B689C42E6D0184B53F848
:102C100024309B6B13F1020FE3D02046FEF7BEFB7E
:102C2000134B53F824306FF001029A63D9E7012562
:102C3000D7E7114A1368013313600025284602B014
:102C400070BD00BF740C0220840D0220BC0900205E
:102C5000C4090020EC0C0220E80C02203C87001084
:102C6000EC9500107C8400107C0C0220CC09002024
:102C7000B0090020900D0220F80C022038B504465F
:102C80001C4D012229461046FFF786FB0122691ED2
:102C90000020FFF781FB4FF050431A68164B53F8A2
:102CA000223093B9154B1B68B3B1154B012243F881
:102CB0002420144C002221461046FFF76DFB002211
:102CC000611C0120FFF768FB38BD0F4B0F4A41F232
:102CD0002B410F4804F0C4F9094B002243F824208B
:102CE0002046FFF719FD4FF050431A68094B53F87F
:102CF0002230DEE71F090020600C0220740C022045
:102D0000900D02201E0900200C870010D89500109D
:102D10007C840010B009002010B5C368D868002872
:102D20004DD0C36A016A426A8A60016A51605A687A
:102D300000F11C018A4249D00022C2621A68013A9D
:102D40001A602B4B1B68002B46D18369C16802694E
:102D50008A60C16851605A6800F108018A4238D01F
:102D6000002282611A68013A1A60036B214A1268D4
:102D7000934201D91F4A13601F4A03EB830302EBFE
:102D800083035B68C3609C68046161609960036B46
:102D900003EB830102EB8104846152F821100131BD
:102DA00003EB830342F82310FFF74AFC4FF0504334
:102DB0001A68124B53F8220000B1012010BD104BCD
:102DC000104A41F2F941104804F04AF9426A5A6047
:102DD000B2E702695A60C3E70C4B5A680262946812
:102DE000446261609160C3621A6801321A60DBE775
:102DF000740C02207C0C0220CC090020900D0220D3
:102E0000B4870010449500107C840010FC0C022054
:102E1000034B1B680360034B1B684360704700BF94
:102E2000EC0C0220840D02204FF050431A68024B34
:102E3000012143F822107047900D022010B5FEF7D3
:102E4000FBFA4FF050431A68034B53F82240FEF749
:102E5000FEFA204610BD00BFB00900202DE9F04168
:102E600004460D46254B1E68254B1F68254BD3F89D
:102E70000080FFF7E3FF002380F87930FFF7DEFFE3
:102E80000830FEF775FCB4F1FF3F00D175B934444A
:102E9000FFF7D4FF8460A64221D9FFF7CFFF00F1EE
:102EA00008014046FEF74BFCBDE8F081164C656812
:102EB000FFF7C4FFC560FFF7C1FFAB680361FFF711
:102EC000BDFFAB6808305860FFF7B8FF0830A86056
:102ED000FFF7B4FF8461236801332360E4E7FFF761
:102EE000ADFF00F108013846FEF729FC074B1B68CF
:102EF000A342D9D9054B1C60D6E700BF840D022040
:102F0000BC090020C40900205C0D0220E80C02204E
:102F100038B568B10C460546FFF790FF00F11C017B
:102F20002846FEF70CFC01212046FFF797FF38BD2D
:102F3000034B044A41F28441034804F091F800BF76
:102F4000C4870010A09500107C84001070B530B3C9
:102F50000C4616460546194B1B683BB3FFF76EFF40
:102F600044F00044C4616C68FFF768FF0462FFF737
:102F700065FFA3684362FFF761FFA3681C305860D8
:102F8000FFF75CFF1C30A060FFF758FFC5622B689D
:102F900001332B6001213046FFF760FF70BD084B05
:102FA000084A41F2A241084804F05AF8074B054A82
:102FB00041F2A641044804F053F800BF740C02200B
:102FC000C4870010809500107C840010D08700100A
:102FD000F8B508B30F46144605464668FFF72EFFBE
:102FE0000662FFF72BFFB3684362FFF727FFB36862
:102FF0001C305860FFF722FF1C30B060FFF71EFF47
:10300000C5622B6801332B600CB14FF0FF372146AE
:103010003846FFF723FFF8BD034B044A41F2C24193
:10302000034804F01DF800BFC4870010609500102D
:103030007C84001000285AD038B50446056BFFF791
:10304000FDFE036B9D424AD2E369002B0EDAA169B3
:10305000236B03EB8303294A02EB830399420CD0D1
:10306000FFF7ECFE036B2363012038BDFFF7E6FE9C
:10307000036BC3F12003E361E9E704F10805284687
:10308000FEF776FBFFF7DAFE036B23631C4A126838
:10309000934201D91A4A1360184A03EB830302EBE7
:1030A00083035B68E360996821614D609D60236BD9
:1030B00003EB830102EB8100A06152F82110013182
:1030C00003EB830342F82310A36B002B02DBA36BFB
:1030D000012B0EDD2046FFF7B3FA0120C5E7A46DF2
:1030E000FFF7ACFE036B9C4205D30020BDE7002038
:1030F00070470120B9E70120B7E700BFCC090020E5
:103100007C0C0220002870D038B50446FFF796FEEC
:1031100084420AD1E36D7BB1013BE365216BA26D73
:10312000914264D07BB1002038BD334B334A41F625
:103130002C21334803F094FF324B304A41F62D21C5
:103140002F4803F08DFF04F108052846FEF710FB19
:10315000A36D2363C3F12002E2612B4A12689342FC
:1031600001D9294A1360294A03EB830302EB830345
:103170005B68E360996821614D609D60236B03EBA0
:10318000830102EB8100A06152F82110013103EBB1
:10319000830342F82310A36B002B2ADBA36B012BC4
:1031A00001DD0120C0E7A26B4FF050431B689A423B
:1031B00009D0A26B164B53F822309B6B13F1020F10
:1031C00007D10120B0E7A26B0120124B43F8220087
:1031D000AAE7A06BFEF7E2F8A26B0D4B53F8223082
:1031E0006FF001029A6301209EE7002070470020E3
:1031F0009AE7012098E700BFFC870010F0940010C8
:103200007C840010248800107C0C0220CC09002053
:10321000B0090020900D0220002878D038B504466F
:10322000C36D4BB1856D8D4200D20D46226BAA4213
:1032300001D0012B07D038BD354B364A41F68A21E3
:10324000354803F00DFFFFF7F9FD844252D0236BA0
:103250002563E269002A02DBC5F12005E561A16969
:1032600003EB83032D4A02EB83039942E3D104F17C
:1032700008052846FEF77CFA236B294A1268934218
:1032800001D9274A1360254A03EB830302EB83032A
:103290005B68E360996821614D609D60236B03EB7F
:1032A000830102EB8100A06152F82110013103EB90
:1032B000830342F82310A36B002BBCDBA36B012B11
:1032C000B9DCA26B4FF050431B689A4219D0A26B35
:1032D000144B53F822309B6B13F1020FABD0A06B51
:1032E000FEF75CF8A26B0F4B53F822306FF001022F
:1032F0009A63A0E70C4B074A41F6A521064803F064
:10330000AFFEA26B094B012143F8221093E77047EF
:1033100024880010CC9400107C840010CC0900207C
:103320007C0C0220B00900203C880010900D022087
:1033300008B54FF050431B68054A52F8232022B1CC
:10334000044A012142F8231008BDFDF769FEFBE79E
:10335000600C0220900D022010B5FEF76DF8164BA0
:103360001B68A3B14FF050431A68144B53F8223036
:1033700073B14FF050410868104B53F820200132D0
:1033800043F820200A6853F82230012B0CD010BDDE
:103390000B4C012221461046FEF7FEFF0122611E62
:1033A0000020FEF7F9FFE4E7064B1B68002BEED187
:1033B000FFF7C8FAEBE700BF500D0220600C0220B7
:1033C0001F090020740C022010B5104B1B6813B9A4
:1033D0000024204610BDFEF72FF804464FF050435E
:1033E0001A680B4B53F822304BB14FF05043196819
:1033F000074A52F82130013342F82130E9E701222F
:1034000004490020FEF7C8FFEFE700BF500D02207F
:10341000600C02201E09002038B51C4B1B68B3B19C
:103420004FF050431B681A4A52F8232082B1184AC1
:1034300052F823205AB1164A52F82310013942F8A3
:1034400023104FF050431B6852F823203AB138BD87
:10345000104B114A41F6B731104803F001FE104AF3
:1034600052F823500F4C002221461046FEF794FFDD
:103470000022611C0120FEF78FFF0020FDF7E7FF0F
:10348000002DE4D0FDF7CCFDE1E700BF500D022098
:10349000600C022018860010B89400107C84001084
:1034A000900D02201E090020164B1B6843B310B577
:1034B00011E004F10800FEF75BF9134A1368013BC1
:1034C0001360104A1368013B1360FFF7A5FF9CB916
:1034D0000C4B1B686BB1FFF73FFF0A4B1B684BB1EE
:1034E0000A4BDB68DC68A36BB3F1FF3FE1D0FFF769
:1034F00093FF10BD0024E8E72046FEF743FFE7E70F
:10350000704700BF700C02206C0C0220700D02206E
:1035100008B5FDF785FDFFF7C7FF034B1B68022BBE
:10352000F9D9FDF77DFDF6E7CC09002010B504467A
:10353000FFF712FF1E4A1368013313601D4B1B680F
:1035400013B91368012B2BD01B4A13680133136086
:103550002365236B194A1268934201D9174A1360F5
:10356000174A03EB830302EB83035B68E36098680D
:10357000206104F1080141609960236B03EB830132
:1035800002EB8100A06152F82110013103EB8303AB
:1035900042F82310074B1B682BB9FFF73DFF10BD06
:1035A000FFF71AF8D0E72046FFF74AF8F5E700BF23
:1035B0006C0C0220500D0220780C02207C0C0220A2
:1035C000CC09002010B582B0059C0194049C0094A5
:1035D000FEF7C8FF38B14FF0FF324260FFF7A6FF99
:1035E000012002B010BD4FF0FF30FAE730B587B0D0
:1035F00000240F2C37DC1F4B1B5D04F118026A44BA
:1036000002F8103C7BB30134F3E71B4819E01B4B75
:1036100003EB85030193002300934FF4007202A98A
:10362000FFF7D0FF024608B3144B53F825309D63D3
:10363000134941F825300135012D17DC002DE4D068
:1036400010480F2CE3DC05F1300304F118026A4442
:1036500002F8103C0E2CDADC04F119036B44002252
:1036600003F8102CD3E700250122E5E7104607B048
:1036700030BD00BF6488001011350010D80C022046
:10368000B0090020C125001008B5FFF7AFFF0128E1
:1036900005D0B0F1FF3F15D00E4B1B6808BD00F000
:1036A00081FE0128F5D1FDF7C7FE0B4B4FF0FF322D
:1036B0001A600A4B01221A60094B00221A60FDF7BA
:1036C0001BFDE9E7074B084A40F6AD61074803F0E8
:1036D000C7FC00BFA4960010E80C0220500D022089
:1036E000840D02206C880010509600107C8400101D
:1036F00010B582B0069C0194049C0094FEF732FF42
:1037000030B1059A4260FFF711FF012002B010BDF1
:103710004FF0FF30FAE7000038B50446FFF71CFE13
:103720001CB304F108052846FEF722F8E36A1BB132
:1037300004F11C00FEF71CF8354A136801331360CE
:10374000A36BB3F1FF3F14D00122324B1B6803B1CE
:103750008AB9314A1368013B1360FEF7FFFDFFF79A
:103760005BFE2046FEF70EFE38BDFFF767FB044602
:10377000D7E70022E9E729462848FDF7D5FF284A80
:10378000136801331360A36B002B20DBA36B012BA9
:1037900020DCA26B4FF050431B689A421DD0A26BF5
:1037A000934229D0A26B1F4B53F822309B6B13F12D
:1037B000020F29D0A06BFDF7F1FDA26B194B53F856
:1037C00022306FF001029A63FFF726FECCE7FFF785
:1037D00023FEC9E7FFF720FEC6E7134B1B6823B99A
:1037E000FFF7A6FDFFF718FEBEE7104B104A40F6A4
:1037F000EF01104803F034FCA26B0F4B012143F89A
:103800002210FFF709FEAFE7FFF706FEACE700BFA7
:10381000780C0220500D02206C0C0220700D02204A
:10382000700C0220B0090020740C02208088001067
:10383000709600107C840010900D022038B504466C
:103840000D46FFF789FD94B1636865601C4A1268F4
:1038500052B1A26B002A02DBA26B012A0BDDDB4313
:1038600003F003031D4226D1FFF7D6FD38BDFFF755
:10387000E5FA0446E8E7A46BE54015F0010FF3D143
:103880004FF050431B689C4210D00E4B53F824302D
:103890009B6B13F1020FE7D02046FDF77FFD094B2C
:1038A00053F824306FF001029A63DDE7064B0122E2
:1038B00043F82420D8E72046FEF7C2FED4E700BF35
:1038C000500D0220B0090020900D022038B54A4B5F
:1038D0001C680CB9204638BDFFF73EFD4FF0504341
:1038E0001C68464B1B688BB1444D2B68013B2B6019
:1038F000002243490120FEF74FFD2B68002B76D1B3
:10390000404B1B68002B55D1002471E03E4B3F4AD1
:1039100040F68F713E4803F0A3FB596A51602CE0DA
:103920001969516039E03B4902EB820201EB8202E6
:103930005268DA6095681D61686090601A6B02EBEE
:10394000820001EB80059D6151F82000013002EBFF
:10395000820241F82200304A1268002A2CD02E4BF5
:10396000DB68DB68DA6A186A596A8160186A48603D
:10397000506803F11C018842CFD00021D962116840
:10398000013911609A69D86819698160D8684860FE
:10399000516803F108008142C2D000219961116889
:1039A000013911601A6B1D4909688A42BBD91B494C
:1039B0000A60B8E70023CEE70BB1FEF7CFFC184B47
:1039C0001D683DB9174B53F824408CB101240FE01A
:1039D000013D08D0FFF75EF80028F9D0114B012215
:1039E00043F82420F4E70E4B00221A60EAE7002493
:1039F000FFF712FD6EE700BF500D0220740C02208D
:103A00001F0900206C0C02209C88001000960010FA
:103A10007C840010CC090020FC0C02207C0C0220CD
:103A2000F80C0220900D022010B568B10446FEF794
:103A3000E1FF0A4B1B68012B09D100212046FFF74B
:103A40000DFAFFF743FF08B9FFF772FC10BD044BF6
:103A5000044A4FF41961044803F002FB740C02207D
:103A6000E4880010649600107C84001010B5314B7F
:103A70001B68002B4AD041F000410160C468002C53
:103A80004BD00369416882688A60416851605A6816
:103A9000824249D0002202611A68013A1A60A36981
:103AA000E16822698A60E16851605A6804F108009F
:103AB00082423CD00022A2611A68013A1A60236B4C
:103AC0001D4A1268934201D91B4A13601B4A03EB3B
:103AD000830302EB83035B68E360996821614860BC
:103AE0009860236B03EB830102EB8100A06152F825
:103AF0002110013103EB830342F82310FFF72CFC64
:103B00002046FEF79DFDFFF787FC10BD0C4B0D4ACC
:103B100041F247510C4803F0A3FA0C4B094A41F219
:103B20005251094803F09CFA82685A60B2E7226950
:103B30005A60BFE7740C02207C0C0220CC090020E4
:103B4000D0870010209500107C840010B4870010EE
:103B50002DE9F041F0B10C46074611B3FFF7FCFB2D
:103B6000214B1E687D68A6EB0508FFF767F990F802
:103B70007930EBB92368B3F1FF3F32D039681B4A83
:103B8000126891421FD07A68B2421CD80023236089
:103B9000012413E0164B174A41F2A951164803F0CD
:103BA0005FFA164B134A41F2AA51134803F058FA30
:103BB000FFF744F9002380F879300124FFF72CFC4B
:103BC0002046BDE8F081434503D80023236001244B
:103BD000F4E7AD1B1D4425603846FFF719F90024B2
:103BE000ECE70024EAE700BF840D0220EC0C022081
:103BF00000890010089500107C8400100C890010CA
:103C000010B5084B1B6813B90124204610BDFFF7FF
:103C1000A3FB054B1B681BB90224FFF7FDFBF4E770
:103C20000024FAE7500D0220740C0220164B1B688A
:103C30004BB310B504464FF050431B68134A52F87B
:103C4000232082B1114A52F823205AB10F4A52F868
:103C50002310013942F823104FF050431B6852F8EB
:103C600023303BB110BD0A4B0A4A41F6F4310A48F1
:103C700003F0F6F9002209491046FEF78DFB2046B5
:103C8000FDF7E5FBEEE77047500D0220600C0220C7
:103C9000188600109C9400107C8400101E090020DF
:103CA00038B5FFF7CBF8C569FFF7C8F8046BFFF725
:103CB000C5F8C4F12004C461284638BD08B5FFF733
:103CC000BDF8034610B1C26D0132C265184608BD89
:103CD00070B588BB0D4616460446FEF78BFEFFF70F
:103CE0003BFBFFF7ABF804F11C0300EB83004368D8
:103CF0004BB3FFF791FB0026FFF7E8FDAEBBFFF7E4
:103D00002BFBFFF79BF804F11C0300EB83004668D4
:103D100046B17DB3FFF792F804F11C0300EB83007A
:103D200000234360FFF78AF82044002380F87830AE
:103D3000FFF772FB304670BD134B144A41F6CB516E
:103D4000134803F08DF9FFF779F82044012380F838
:103D5000783016B9FFF760FBCEE7FFF75DFB012176
:103D60003046FFF77BF80126C6E70028C7D1FFF7EA
:103D7000DFFAC4E7FFF762F8731E04F11C0200EBE0
:103D800082004360CEE700BF1C89001084940010BD
:103D90007C8400102DE9F041DDF81880F1B904466B
:103DA00017461E460D4600B3FFF7D6FAB8F1000FCE
:103DB00006D005F11C0304EB83035B68C8F80030F0
:103DC000631993F87810C9B2022283F87820042E80
:103DD00033D8DFE806F017111F262B003D4B3E4A73
:103DE00041F6A8613D4803F03BF93D4B3A4A41F6A4
:103DF000A9613A4803F034F91C3504EB85056B687A
:103E00003B436B60012923D00124FFF705FB2046CB
:103E1000BDE8F0811C3504EB85056B6801336B60F0
:103E2000F0E71C3504EB85056F60EBE702294FD006
:103E30001C3504EB85056F60E4E72A4B1B68002BFB
:103E4000E0D0294B244A41F6DE61244803F008F90A
:103E5000A369E16822698A60E16851605A6804F1E7
:103E600008018A422AD00022A2611A68013A1A6027
:103E7000236B1E4A1268934201D91C4A13601C4AE4
:103E800003EB830302EB83035B68E36098682061C4
:103E900041609960236B03EB830102EB8100A06119
:103EA00052F82110013103EB830342F82310E36A37
:103EB0003BB92046FEF7C4FB0124A6E722695A60FD
:103EC000D1E70C4B044A41F6ED61044803F0C8F811
:103ED00000249AE730890010709400107C84001050
:103EE00044890010840D0220548900107C0C0220AB
:103EF000CC09002074890010F8B500285CD00C466D
:103F00001746054600295ED1FDF738F9FFF75CFA40
:103F100006462B1993F87820022183F878101C3478
:103F200005EB8404636801336360012A40D1EB6AC6
:103F3000002B4FD1354B1B68002B55D1AB69E9687D
:103F40002A698A60E96851605A6805F108018A4265
:103F500047D00022AA611A68013A1A602B6B2C4ADA
:103F60001268934201D92A4A13602A4A03EB830359
:103F700002EB83035B68EB6098682861416099609D
:103F80002B6B03EB830102EB8100A86152F8211037
:103F9000013103EB830342F823102846FEF750FB60
:103FA0004FF050431A681C4B53F82230012B29D094
:103FB0003046FFF73BFEF8BD184B194A41F6C47175
:103FC000184803F04DF8184B154A41F6C5711548CD
:103FD00003F046F8154B124A41F6EE71114803F012
:103FE0003FF82A695A60B4E7114B5A682A62906810
:103FF000686205F11C0141609160EB621A68013250
:104000001A60CAE7002FD3D03B60D1E7740C0220BE
:104010007C0C0220CC090020900D02204489001065
:10402000509400107C8400103089001074890010B6
:10403000FC0C0220064B1A6813682BB9012303609D
:1040400023B9D368186870470023F8E70020704749
:10405000B809002008B54160006191420CD8D21A1D
:1040600083699A4201D3012008BD011D094B1868DC
:10407000FDF765FB0020F7E79A4201D2994206D28C
:10408000011D054B1868FDF75AFB0020ECE70120E5
:10409000EAE700BFC8090020B809002070B504464F
:1040A0000D46164604E0A3691D44236A204698473E
:1040B000A1692B46324629442046FFF7CBFF002852
:1040C000F1D170BD70B505460E460D4B1B68DB681F
:1040D000DC68201DFDF74CFB94F8283013F0040F2A
:1040E00007D123F0010384F82830236A204698473B
:1040F00070BD324629462046FFF7D0FFF5E700BFE6
:10410000B809002008B505E0DB684FF0FF311868FA
:10411000FFF7D8FF054B1B681A68002AF4D1044A40
:10412000106802490860136008BD00BFB80900208C
:10413000C809002038B50546FEF7A0FC0446074B29
:104140001B68834205D800232B60044B1C6020466B
:1041500038BDFFF7D7FF01232B60F6E7E00C022004
:1041600070B582B006460C46FEF744FC01A8FFF786
:10417000E1FF019B03BB05469CB9B0420AD222462F
:10418000711B0F4B1868FEF7BFF8FFF79FFB80B15C
:1041900002B070BDFFF79AFB29463046FFF792FF49
:1041A000F6E7084A126812680AB90124E7E71C46D4
:1041B000E5E7FFF7BDF8EBE7FFF788FBE8E700BFAF
:1041C000880D0220C809002030B587B00023029373
:1041D00003930493059302E0029B002B0FDA002265
:1041E00002A93A4B1868FDF79BFE00286CD0029B91
:1041F000002BF1DA05990498039B9847ECE7049C9F
:10420000636913B1201DFDF7B3FA01A8FFF792FF10
:104210000546029B013B082BE1D8DFE803F00505CA
:10422000293047050529300094F8283043F0010370
:1042300084F82830039BA169024619442046FFF701
:1042400009FF0028CBD094F8283013F0040F07D1D1
:1042500023F0010384F82830236A20469847BEE7FC
:10426000A3692A46039919442046FFF717FFF3E78D
:1042700094F8283023F0010384F82830AFE794F84D
:10428000283043F0010384F828300399A16131B14B
:104290000346024601442046FFF7DCFE9FE70C4B35
:1042A0000C4A4FF482610C4802F0DAFE94F8283090
:1042B00013F0020F04D023F0010384F828308EE7B6
:1042C0002046FCF71DFD8AE707B030BD880D0220AF
:1042D000B4890010F4960010DC89001000B583B09A
:1042E00001A8FFF7A7FE0199FFF73AFFFFF76CFF60
:1042F000F6E7000038B5FFF72FF80F4B1B6813B136
:10430000FFF78AF838BD0D4D2846FDF7FFF90C4C34
:104310002046FDF7FBF90B4B1D600B4B1C60002288
:1043200010210A20FDF7A4FB034B18600028E7D0FA
:104330000649FDF77BFFE3E7880D0220800C022091
:10434000940C0220B8090020C8090020248A00101B
:104350002DE9F041079CB9B1074615461E4688462F
:10436000FFF7C8FF2760C4F81880E661069B236248
:10437000201DFDF7D6F92DB194F8283043F0040341
:1043800084F82830BDE8F081034B044A40F2A911BB
:10439000034802F065FE00BF2C8A0010DC96001076
:1043A000DC89001000B585B0FFF7A4FF0D4B1B683A
:1043B0008BB10D4B02934FF0FF3301931F230093FA
:1043C00000234FF4806209490948FFF791F910B1C1
:1043D00005B05DF804FB074B074A4FF4A37107488B
:1043E00002F03EFE880D02208C0D0220488A00104B
:1043F000DD420010508A001010970010DC89001078
:104400002DE9F04182B00446884617461D462C200F
:10441000FCF7B8FB064658B1002380F8283001901D
:10442000089B00932B463A4641462046FFF790FFF3
:10443000304602B0BDE8F08110B584B0A0B1164B93
:104440001B683BB3009101920290052913DCFFF732
:10445000D7FB022816D000231A4669460E4800688A
:10446000FDF752FB04B010BD0C4B0D4A40F2CD11CC
:104470000C4802F0F5FD0C4B094A4FF4EC71094869
:1044800002F0EEFD0023069A694603480068FDF736
:104490003BFBE7E70020E5E7880D0220588A001083
:1044A000BC960010DC890010608A001010B538B18D
:1044B0000446FEF751FFE469FEF7AEFF204610BD4B
:1044C000034B044A40F2AE41034802F0C9FD00BF6D
:1044D000588A0010A8960010DC89001010B584B02E
:1044E00014461A466FF00103009301900291039461
:1044F0000023694602480068FDF702FC04B010BDC5
:10450000880D022070B51646049D00EB400C4FEA62
:104510008C0C0CF1804C0CF5803CDCF80420AA4299
:1045200001D2CCF80450A0F1040E5FFA8EFEBEF169
:10453000010F28D90CF540524FF4006414601E4A54
:1045400052F8202042B11C4C6469B4FBF2F40134EF
:1045500004EB4404033CFDD2DCF8002082EA46125E
:1045600002F0E0020CF580542260BEF1010F16D972
:104570000CF500524FF400611160CCF804500E4A63
:1045800042F8203070BD0129D4D10CF540520324EB
:104590001460DCF8082012F0010FFAD0DCE7DCF838
:1045A00000204A4002F003022260DCF808400122A9
:1045B0008A401442F9D0DBE74009002010B582B0F0
:1045C0004FF480340094FFF79DFF02B010BD00004F
:1045D000014B53F82000704740090020EFF3108092
:1045E00072B6064BD3E8CF1F01220029FAD1C3E8E7
:1045F000412F0029F6D1BFF35F8F70471B090020C0
:104600000023034AC2E88F3F80F31088704700BF41
:104610001B09002070B505460C461646FFF7DEFF65
:10462000E208A95C04F0070C012303FA0CF3194219
:1046300005D1DBB20B43AB54FFF7E2FF70BD21465F
:104640003046FCF715FA0000054A1078431CDBB22F
:104650001370172B02D9134610221A70704700BF2F
:10466000CA06002008B50146024A0348FFF7D2FFF8
:1046700008BD00BF848A0010380900204FF0E022F6
:10468000936843F00053936070470000002305E0F7
:10469000044A1A440021C2E88F1F01331F2BF7D9A7
:1046A000704700BF100900200C4B03EB800253F849
:1046B000203083F0400303F0C00302F5805CCCF8A7
:1046C0000030C00000F1804000F52030416002F56C
:1046D00040524FF480731360704700BF0480034062
:1046E00008B54FF0000242EC440042EC40000521C6
:1046F000FFF7DAFF08BD0000064B9B68103043F857
:104700002010BFF35F8F00230349C1E88F3F82F37E
:104710001088704700ED00E019090020004870473C
:1047200000E400E008B5FFF7F9FF002304E04FF0D4
:10473000803240F8042B01330C2BF8D908BD00005F
:1047400008B50388DA0A1C2A06D15B050BD45B1571
:10475000023300EB430008BD064B074A40F2151137
:10476000064802F07DFC03F5FF1303F5FF531F33EA
:10477000EDE700BFA48A001074970010BC8A0010F7
:1047800008B5091A01F2FC7240F6FE739A4208D885
:10479000081F11F0010F04D1C0F34A0040F460403B
:1047A00008BD034B034A40F20711034802F058FCCE
:1047B000048B001068970010BC8A001008B5091A15
:1047C00004394B08090B0AD1C1F30A0141F47041C5
:1047D00001806FEA43536FEA5353438008BD034B94
:1047E000034A40F20F11034802F03AFC348B0010E8
:1047F00044970010BC8A00104209064B53F822303F
:1048000000F01F000122824003EA0200003818BFB6
:104810000120704700E100E03AB1064B00F1600270
:1048200043F8221043F8201070472030014B43F822
:104830002010704700E100E008B50A4600F01F03B1
:10484000012199404009FFF7E7FF08BD024B9B6833
:10485000103053F82000704700ED00E070B50546B9
:104860000C46EFF3108672B60F4BD3E8CF1F012230
:104870000029FAD1C3E8412F0029F6D1BFF35F8F99
:10488000FFF7E4FF094B984201D0A04205D1324620
:1048900021462846FFF730FF70BD054B054AE7214A
:1048A000054802F0DDFB00BF190900201D010010C2
:1048B000448B001084970010BC8A00102DE9F0474B
:1048C00006460D46EFF3108872B6504BD3E8CF1F63
:1048D00001220029FAD1C3E8412F0029F6D1BFF304
:1048E0005F8F4B4B9B6800F1100A53F82A70494BBD
:1048F0009F4207D0AF4200F087803C46464BFB1AF0
:104900002F2B06D9424639463046FFF7F5FEBDE863
:10491000F087FFF771FF814600213046FFF78CFFDB
:10492000BFF35F8FEFF30580C0B208B1824510D1AD
:1049300024F001040021A268954212D094F90630B7
:10494000002B0DDB03EB43032146334C04EB8304C4
:10495000F1E7324B324A40F2F911324802F080FB63
:104960002146954249D194F90650002D2BDB05EBE9
:104970004502294B03EB82039A68A260DA79E2715F
:1049800093F90630A371002B10DA4BF60150A0808A
:1049900005EB4502204B03EB8203234A1178997102
:1049A000157049463046FFF747FFABE705EB450377
:1049B000194800EB83000430FFF7C2FE0146201DBA
:1049C000FFF7DEFEE3E798B981B1FF238B714BF669
:1049D00001538B80144A1378A3714AF6AA230E4917
:1049E000641A644163431B0D1370DAE7094FF1E762
:1049F0000E49201DFFF7E2FED3E70D4B084A40F2B7
:104A00003B21084802F02CFB024F7BE719090020EC
:104A100000ED00E01D010010CC0600207C8B001092
:104A200054970010BC8A0010980D02200607002041
:104A3000B08B001038B504460D46FFF76FFE4FEA05
:104A4000940C50F82C3004F00304E400FF22A24040
:104A500023EA0203A5402B4340F82C3038BD000068
:104A600038B540F00104324BE31A2F2B31D8EFF365
:104A70000581C9B2002933D0EFF3108E72B62D4BE9
:104A8000D3E8CF5F0122002DFAD1C3E8452F002DD6
:104A9000F6D1BFF35F8F4AF6AA230246244D521B7C
:104AA000524153431B0D4FFA83FC234B9B6853F831
:104AB0002130A3421BD00023032B32D803EB430148
:104AC0001B4A02EB810292F90620624520D0013395
:104AD000F2E71A4B1A4A4FF41D711A4802F0C0FA55
:104AE000194B174A40F27721164802F0B9FA124BD7
:104AF0009B68164A43F82120154B1A78827183F877
:104B000000C000230B4AC2E88F3F8EF3108838BDE7
:104B1000074A02EB8101FF248C714BF601538B8015
:104B2000EAE70C4B064A4FF42271064802F098FA65
:104B3000CC0600201909002000ED00E0B88B001021
:104B400028970010BC8A0010E08B00101D01001097
:104B5000980D0220EC8B0010014B0B440360704752
:104B60001009002010B50446FFF76EFD01462046EF
:104B7000FFF7F2FF4FF0FF336360BFF35F8F10BDAD
:104B800010B50446FFF760FD01462046FFF7E4FF3D
:104B90004FF0FF33636000232372BFF35F8F10BDBC
:104BA00010B50D4C09E00D4B0D4A1A210D4802F0CD
:104BB00057FA2046FFF7D6FF08340B4B9C4209D228
:104BC0002368002BF5D0012BEDD12046FFF7D8FF4D
:104BD0000C34F2E710BD00BF44070020F48B001036
:104BE000C4970010148C0010540700200246EFF305
:104BF0000583DBB2103B990804D0034803F003039C
:104C0000136070470148F9E700800B4000000B403B
:104C100010B4846AA2EB040C0B1D50F823301B1B4C
:104C20009C4504D3046A01238B401C4202D1043109
:104C300040F821205DF8044B704741EA004070477E
:104C40002DE9F04F85B003A8FFF7D0FF954B9842B0
:104C500014BF00230123039901EB8303924A52F806
:104C600023402378994206D1054601228A4000F567
:104C700041535A602CE18D4B8D4A92218D4802F0B0
:104C8000EFF9D4F8149006EB46074FEAC70A09EB90
:104C9000C707D7F808B0D7F80C80284600F04CFBBF
:104CA000B0EB0B0061EB0803002BC0F21A81B8F1E6
:104CB000000F64DB3B691A4600937F4B9A4230D069
:104CC000798889B2B4F90800FFF7B7FF7969009BCA
:104CD0009847009001910099019A51EA02034ED041
:104CE0001346002A29DABBEB010268EB0308BA601D
:104CF000C7F80C8039F90A70002FC0F2F280D4F89E
:104D000014E007EB47030EEBC3039968DB68511A05
:104D100068EB0303002BC0F2E480A4462CF8087F64
:104D200017E07A69136900921046984738B3009AE1
:104D30001368009353680193CDE7284600F0FCFA0E
:104D4000009B1A18019B43EB0108D0E79C463EF9F3
:104D50000B70002F0EDBBCF9003003EB43034FEA6E
:104D6000C30B0EEBC3039868D968101A68EB0101F6
:104D70000029EBDA29F80A70ACF80060B1E039F9E3
:104D80000A3023812369EFF3108272B6D3E8CF0F84
:104D900001210028FAD1C3E8401F0028F6D1BFF353
:104DA0005F8FB4F9023029F80A3066802169002348
:104DB000C1E88F3F82F3108893E02369EFF31082FC
:104DC00072B6D3E8CF0F01210028FAD1C3E8401F03
:104DD0000028F6D1BFF35F8FB4F804800FFA88F88B
:104DE0004FF6FF73A38021690023C1E88F3F82F350
:104DF00010881AE01F4630F90A60002E0FDBB7F961
:104E0000003003EB43034FEAC30A00EBC303996886
:104E1000DA68BCEB01016EEB0202002AEADAA7F8BD
:104E2000008030F9098020F80960B8F1000F5DDBDF
:104E3000606908EB48034FEAC30900EBC303D3F8EA
:104E400008C0D3F80CE004F10807B4F90860D4E70F
:104E50000023A37104F1080CB4F9083010E04FF0FE
:104E6000FF384FF0FF39C0E90289B4F908009842D1
:104E700005D0ACF80020B4F90800C85323811346CC
:104E8000B3F1FF3F35D0616903EB4302D70001EB7B
:104E9000C20031F93220468816F4004FDFD1844633
:104EA000EDE700BF00800B4090090020A88C0010A7
:104EB000F0970010D48C0010414C0010284600F0F0
:104EC0003BFA3F1A66EB0106012F76F1000628DA5D
:104ED000039A01239340EB63B4F90860002EBFF6F8
:104EE000D0AEA38813F4004F3FF467AFA379002B33
:104EF000AED1B4F90830002B13DB626903EB430336
:104F000002EBC3039F68DE68B6F1FF3F08BFB7F14D
:104F1000FF3FD3D03A46334603992846FFF778FE41
:104F2000CCE740BF05B0BDE8F08F00BFF8B5044640
:104F30000D4611460A4B984210D000262E440127F8
:104F400007FA05F525623046FFF788FC39463046FA
:104F5000FFF772FC04F501542560F8BD0426EDE767
:104F600000800B40F8B504460E4617461D46C1604A
:104F7000FFF76AFB164B034423612770ABB26381D2
:104F80004FF05042127862704FF6FF722281A28079
:104F9000013B63804FF0000C08E00CF1FF300CEB9C
:104FA0004C0E636923F83E000CF1010CAC45F4D3C0
:104FB000084B9E4214BF0023012307EB8303064ADC
:104FC00042F82340054A39463046FFF7AFFFF8BDA7
:104FD0001009002000800B4090090020414C001077
:104FE00008B50B480368EFF3108172B6D3E8CFCF52
:104FF0000122BCF1000FF9D1C3E84C2FBCF1000F26
:10500000F4D1BFF35F8FFCF703F90020002108BD46
:105010004C0C002008B5054B1B690BB1034808BDBB
:10502000034B044A6521044802F01AF814070020D3
:10503000148D0010D8970010D48C0010F8B50446D9
:105040009E460069EFF3108172B6D0E8CF6F01255C
:10505000002EFAD1C0E8465F002EF6D1BFF35F8F75
:10506000B4F90250666905EB4500C70006EBC000C5
:10507000002D03DB36F907C0A4F802C04FF0000C86
:105080002369C3E88FCF81F31088654533DB069928
:105090000161079941618260C0F80CE0418889B2E2
:1050A0000131C1F30E0101B9012141802846FFF70A
:1050B000C4FD2369EFF3108272B6D3E8CFCF01218C
:1050C000BCF1000FF9D1C3E84C1FBCF1000FF4D1C3
:1050D000BFF35F8FA388F353A58021690023C1E844
:1050E0008F3F82F31088E368217801228A4003F51C
:1050F00001535A60F8BD4FF0FF30FBE770B582B046
:10510000064615461C469DF8203033B900F03EF99E
:10511000854264EB010100290ADB079B0193069B92
:1051200000932A4623463046FFF788FF02B070BD41
:105130000020FBE7F0B585B005460C4616461F4635
:10514000FFF768FF9DF828300293019700962A46E2
:105150002346FFF7D3FF05B0F0BD03464089B0EB0F
:10516000214F31DD10B50A14586902EB420200EB01
:10517000C2001A69EFF3108C72B6D2E8CF4F5FF01D
:10518000010E002CF9D1C2E844EF002CF5D1BFF399
:105190005F8F428892B289B28A420FD0002019698B
:1051A0000022C1E88F2F8CF3108830B1DA681B78A9
:1051B0000121994002F50153596010BD42F40042AB
:1051C000428001209871EAE70020704710B504463C
:1051D000FFF720FF2146FFF7C0FF10BDF0B583B0F9
:1051E00005460C46EFF30583DBB293B1384B5B6A9F
:1051F0008B4209D3364A926A824208D28B4201D04E
:10520000012002E0002000E0002003B0F0BD0120FA
:10521000FBE7FFF7FFFEC7680678384600F08CF81A
:105220002A1A64EB0101043657F826301B1A9A42F9
:1052300071F1000112DB20BF254B5B6A9C4209D84B
:10524000234A926AAA4207D29C4201D00120DCE79D
:105250000020DAE70020D8E70120D6E700230093FA
:105260001C4A28462146FFF765FF002818DD184B29
:105270005B6A9C4205D8164A926AAA4202D29C42B4
:1052800000D120BFFFF7A2FF114B5B6A9C421BD8E5
:105290000F4A926AAA4219D29C4213D00120B4E765
:1052A0000B4B5B6A9C4209D8094A926AAA4207D210
:1052B0009C4201D00120A8E70020A6E70020A4E737
:1052C0000120A2E70020A0E700209EE701209CE744
:1052D00000000B40E14F00100048704700000B40F9
:1052E00010B50A4B1B6923B10A210948FFF734FCAA
:1052F00010BDFFF7F1FF0446032100F00BF8102367
:10530000032221460148FFF72DFEEDE71407002098
:105310004C0C002010B5054A054C064BA04214BFAA
:105320001846581CFFF776F910BD00BF388D0010E5
:1053300000800B403C0900200246436A906A1946EF
:10534000536A9942FAD17047416A00E0416A994232
:10535000FCD300E0416A994202D1816A9142F9D3BB
:10536000704770B5064614461D46FFF7E5FF021963
:1053700041EB0503824273EB010102D24FF0FF3291
:1053800013463046FFF7E0FF70BD000008B5024845
:10539000FFF7D2FF08BD00BF00000B4008B5024672
:1053A0000B460248FFF7DDFF08BD00BF00000B40C1
:1053B00008B5002905DB826A836A9B1A8B42FBD3FE
:1053C00008BD08460021FFF7E9FFF9E708B50E4BD5
:1053D000994206D84FF47A7303FB01F1FFF7E8FF17
:1053E00008BDCA0E4B015B1A62F10002920042EA4C
:1053F00093729B005B1842F10002D100DA0041EA8F
:105400005373FFF7AEFFEBE79BC4200008B50146DE
:105410000148FFF7DBFF08BD00000B4070B5049C9E
:10542000344DB5FBF1FC344D1544344EB54237D8FC
:10543000B2FBFCF5A5F1100EBEF5987F36D803F14E
:10544000FF3EBEF1060F37D804F1FF3EBEF1060F56
:1054500032D8BCEB121F35D8240344EA0344036856
:10546000002B35DB264B984242D00E2301229A4076
:10547000244B1A6003F580531A60234B9B6832EA71
:105480000303FAD10160856000F540520432212304
:1054900013600368002BFCDAC4600823136070BD3E
:1054A0001A4B1B4A11211B4801F0DAFD1A4B184A0E
:1054B0001921184801F0D4FD184B154A1C21154834
:1054C00001F0CEFD164B124A2321124801F0C8FD0F
:1054D000036803F03F038B42C4D18368C3F30B031B
:1054E000AB42BFD1C36803F4EE23A342BAD1D6E7DF
:1054F0000F23BBE7001BB70080E84BD380F8A9322D
:105500000080054000200240000002405C8D001039
:1055100010980010AC8D0010F48D0010108E00104B
:105520005C8E0010054A00EB400302EB83035960D8
:1055300000EB4000800001231350704700801040B2
:1055400008B50023DB8A002242E800F212F4800F43
:1055500002D11021984708BD04219847FBE70000BD
:10556000034BD3F82838002BFAD0BFF35F8F704776
:1055700000000E40002207E0054B13449B00BFF3E0
:105580005F8F002119600132072AF5D9704700BFEB
:105590000382031008B5FFF7EDFF08BD074B4FF47A
:1055A0002A621A604FF48D72DA6003F50053044AE0
:1055B0001A60024B5B68002BFBDA704700800440E6
:1055C00000B0FA00054B984204D3054B984203D330
:1055D0000020704700207047012070471001001024
:1055E0001C010010044B9B6843F82010BFF35F8F31
:1055F00082F31088704700BF00ED00E0024B9B680B
:1056000053F82000704700BF00ED00E0F8B50646F3
:105610000D46EFF3108772B6FFF7F0FF0446A8427D
:1056200002D0FFF7CFFF30B13A4629463046FFF7A8
:10563000D9FF2046F8BD034B034A3721034801F048
:105640000FFD00BF788E00101C980010BC8E00105B
:1056500003BD10B5044600F0B5F9A04710BD000029
:1056600070B503461046DD081B4E745D03F0070E4F
:10567000012202FA0EFE04EA0E0403EB020C4FEACA
:10568000DC031644F35C0CF0070C02FA0CF2134036
:10569000003B18BF01235B00002C18BF43F001033F
:1056A00013EA010207D000B970BD0A4619460B483B
:1056B000FBF7DEF90132012A0BD8012393400B429C
:1056C000F8D0054B1344585D5FFA8EF420435855CB
:1056D000F0E70120E8E700BF6C090020108F001000
:1056E0004FF050431B6D13F0020FF9D04FF05043B1
:1056F000586540BF704700E020BF4FF050431B6D1E
:1057000013F0010FF8D04FF05043986D70472DE91A
:10571000F04186B004460F4690461920FFF76CF81A
:10572000064600211920FFF787F80025009501950E
:1057300001230293CDF80C80049705940DE04FF0FF
:1057400050439B6D4FF050431B6D13F0010FF6D18A
:1057500040BF09E00135052D0FD806AB03EB8503EB
:1057600053F8184C002CEDD02046FFF7B9FFFFF797
:10577000C2FF8442EED00025EDE731461920FFF745
:105780005BF806B0BDE8F08108B512F0030F11D147
:1057900022F003028B180A4A926843F80C0C43F873
:1057A000081C084943F8041CA3F10C010648FFF744
:1057B000AEFF08BD054B064A8921064801F050FCA2
:1057C00000ED00E05356001051560010CC8F001031
:1057D0003C9800107C8F001008B5064A064B9A4290
:1057E00005D311464FF40062FFF7CEFF08BD4FF01E
:1057F000FF31F7E70008082000000820F8B505464B
:105800000E46FEF7EBFE07460724002C07DB0022BE
:1058100029462046FFF724FF18B9013CF5E76FF051
:1058200008040EB1002C04DB3846FEF7E9FE2046E2
:10583000F8BD0148FBF71CF9E88F0010074B9842B0
:105840000AD01A2301229A40054B1A60054B9B6827
:1058500032EA0303FAD170471B23F3E700800740C5
:10586000003002400000024038B5046B14F0010F14
:1058700001D1204638BD00F5405340F201321A6391
:10588000436A856A05EB8315AD020620FEF7A0FE8C
:10589000044BA3FB0030C00AB5FBF0F00021FFF77A
:1058A0007DFDE6E7757B2B8F70B505460C461646E9
:1058B000FFF7DAFFEB6A5C40344005F58153DC60AA
:1058C000286370BD70B505460C460620FEF780FEC5
:1058D000C300B3FBF4F30133DC0907D04FF6FE72CB
:1058E000944214D82646C3F3450400E001266E62B4
:1058F000AC62002211462846FFF7D6FF0620FEF7CD
:1059000067FE800004EB8614B0FBF4F070BD002449
:105910004FF6FF76EBE7000049B10A22054B9842AB
:1059200014BF00200120044B23F8102070474FF4CF
:105930008072F3E700800740500C002038B5044621
:105940000D460620FEF744FEF8B1114B9C421DD0D7
:105950001A22012393400F4A13602046FFF76EFF7F
:1059600000212046FFF7D8FF29462046FFF7AAFF6F
:10597000E36A83F0700303F07E0304F58152D36081
:1059800040F2013323630323A36438BD1B22E0E705
:10599000008007400020024010B5044602E054F8A1
:1059A000043B9847014B9C42F9D310BDE0770010AF
:1059B0007047000008B50248FFF7EEFF08BD00BFC2
:1059C000A077001008B50248FFF7E6FF08BD00BF4A
:1059D000CC770010064B074A1A6003F58053064A3D
:1059E0001A60064B9A68044B9343FAD1704700BF84
:1059F000002002407F3BEFEFF6FFF3030000024080
:105A0000054BDB6CB3F5004F00D07047034B4FF4F0
:105A10008022DA64F9E700BF000011500020115025
:105A20004FF0E022D2F8881D034B0B43C2F8883DAB
:105A300010EE3004704700BF03033000054B6FF0D9
:105A400060421A60044B9B68DB4333F06043F9D13A
:105A5000704700BF003002400000024008B545F228
:105A60005320FFF76DFD03460420984708BD08B595
:105A700045F25320FFF764FD03460120984708BD17
:105A800008B5FEF703FE08BD38B5054CA168054D05
:105A90004FF48872284601F0CBFDA56038BD00BFE9
:105AA00000ED00E00000002038B50420FEF790FD76
:105AB000064BA3FB0035AD0C002404E02946E0B200
:105AC000FFF730FD0134052CF8DD38BD83DE1B43C4
:105AD00030B583B0264B0022C3F88420FFF75EFD6B
